{
  "contractName": "ContractImpl",
  "abi": [
    {
      "constant": true,
      "inputs": [],
      "name": "doSomething",
      "outputs": [
        {
          "internalType": "bool",
          "name": "",
          "type": "bool"
        }
      ],
      "payable": false,
      "stateMutability": "view",
      "type": "function"
    }
  ],
  "bytecode": "0x6080604052348015600f57600080fd5b50608b8061001e6000396000f3fe6080604052348015600f57600080fd5b506004361060285760003560e01c80638269267914602d575b600080fd5b6033604d565b604051808215151515815260200191505060405180910390f35b6000600190509056fea265627a7a723158206b6376b586f7126024c0cd3f8e0f1fa8b1247209e40c4a8f1b86ec912fb9b8b964736f6c63430005100032",
  "source": "pragma solidity ^0.5.0;\n\nimport './IContract.sol';\n\ncontract ContractImpl is IContract {\n\tfunction doSomething() external view returns (bool) {\n\t\treturn true;\n\t}\n}\n",
  "sourcePath": "/media/ext/cw/frontier-tester/contracts/ContractImpl.sol",
  "compiler": {
    "name": "solc",
    "version": "0.5.16+commit.9c3226ce.Emscripten.clang"
  },
  "schemaVersion": "3.2.0",
  "updatedAt": "2020-09-16T14:33:25.023Z",
  "networkType": "ethereum",
  "devdoc": {
    "methods": {}
  },
  "userdoc": {
    "methods": {}
  }
}