{
  "contractName": "Create2Factory",
  "abi": [
    {
      "inputs": [],
      "payable": false,
      "stateMutability": "nonpayable",
      "type": "constructor"
    },
    {
      "constant": false,
      "inputs": [
        {
          "internalType": "uint256",
          "name": "salt",
          "type": "uint256"
        }
      ],
      "name": "deploy",
      "outputs": [],
      "payable": false,
      "stateMutability": "nonpayable",
      "type": "function"
    },
    {
      "constant": true,
      "inputs": [],
      "name": "viewAddr",
      "outputs": [
        {
          "internalType": "address",
          "name": "",
          "type": "address"
        }
      ],
      "payable": false,
      "stateMutability": "view",
      "type": "function"
    }
  ],
  "bytecode": "0x608060405234801561001057600080fd5b50610262806100206000396000f3fe608060405234801561001057600080fd5b50600436106100365760003560e01c8063059fe9721461003b578063a5e3875114610085575b600080fd5b6100436100b3565b604051808273ffffffffffffffffffffffffffffffffffffffff1673ffffffffffffffffffffffffffffffffffffffff16815260200191505060405180910390f35b6100b16004803603602081101561009b57600080fd5b81019080803590602001909291905050506100dc565b005b60008060009054906101000a900473ffffffffffffffffffffffffffffffffffffffff16905090565b60006060604051806020016100f090610162565b6020820181038252601f19601f820116604052509050828151602083016000f59150813b61011d57600080fd5b816000806101000a81548173ffffffffffffffffffffffffffffffffffffffff021916908373ffffffffffffffffffffffffffffffffffffffff160217905550505050565b60bf8061016f8339019056fe60806040523460008190555060a6806100196000396000f3fe60806040526004361060265760003560e01c80632096525514602b57806327c845dc146053575b600080fd5b348015603657600080fd5b50603d605b565b6040518082815260200191505060405180910390f35b60596064565b005b60008054905090565b346000540160008190555056fea265627a7a72315820114865ff0b2817bd7ef621fd2e8fff81b4c862f3a2f48240b810d60abc4d797e64736f6c63430005100032a265627a7a7231582098d199061cbbfbb6122fc8b4327adfe9a57cc1e9b624707a9a44b354d66786a164736f6c63430005100032",
  "source": "pragma solidity ^0.5.0;\n\nimport './ValueContract.sol';\n\ncontract Create2Factory {\n  address addr;\n\n  constructor() public { }\n\n  function deploy(uint256 salt) public {\n    address addrLocal;\n    bytes memory bytecode = type(ValueContract).creationCode;\n    assembly {\n      addrLocal := create2(0, add(bytecode, 0x20), mload(bytecode), salt)\n      if iszero(extcodesize(addrLocal)) {\n        revert(0, 0)\n      }\n    }\n    addr = addrLocal;\n  }\n\n  function viewAddr() public view returns (address) {\n    return addr;\n  }\n}\n",
  "sourcePath": "/media/ext/cw/frontier-tester/contracts/Create2Factory.sol",
  "compiler": {
    "name": "solc",
    "version": "0.5.16+commit.9c3226ce.Emscripten.clang"
  },
  "schemaVersion": "3.2.0",
  "updatedAt": "2020-09-22T13:58:53.713Z",
  "devdoc": {
    "methods": {}
  },
  "userdoc": {
    "methods": {}
  }
}