{
  "contractName": "EventContract",
  "abi": [
    {
      "anonymous": false,
      "inputs": [
        {
          "indexed": false,
          "internalType": "address",
          "name": "c",
          "type": "address"
        }
      ],
      "name": "e",
      "type": "event"
    },
    {
      "constant": false,
      "inputs": [],
      "name": "emitEvent",
      "outputs": [],
      "payable": false,
      "stateMutability": "nonpayable",
      "type": "function"
    }
  ],
  "bytecode": "0x6080604052348015600f57600080fd5b5060cf8061001e6000396000f3fe6080604052348015600f57600080fd5b506004361060285760003560e01c80637b0cb83914602d575b600080fd5b60336035565b005b7f23919512b2162ddc59b67a65e3b03c419d4105366f7d4a632f5d3c3bee9b1cff30604051808273ffffffffffffffffffffffffffffffffffffffff1673ffffffffffffffffffffffffffffffffffffffff16815260200191505060405180910390a156fea265627a7a72315820119a2895e24ba9402ff12474e3d33d27d746c278db2d2cec6621709c21cef48264736f6c63430005100032",
  "source": "pragma solidity ^0.5.0;\n\ncontract EventContract {\n  event e(address c);\n\n  function emitEvent() public {\n    emit e(address(this));\n  }\n}\n",
  "sourcePath": "/media/ext/cw/edgeware-node-develop/ts-tests/frontier-tester/contracts/EventContract.sol",
  "compiler": {
    "name": "solc",
    "version": "0.5.16+commit.9c3226ce.Emscripten.clang"
  },
  "schemaVersion": "3.2.3",
  "updatedAt": "2021-01-21T20:27:19.346Z",
  "devdoc": {
    "methods": {}
  },
  "userdoc": {
    "methods": {}
  }
}