{
  "contractName": "Hashing",
  "abi": [
    {
      "constant": true,
      "inputs": [
        {
          "internalType": "bytes",
          "name": "input",
          "type": "bytes"
        }
      ],
      "name": "callKeccak256",
      "outputs": [
        {
          "internalType": "bytes32",
          "name": "result",
          "type": "bytes32"
        }
      ],
      "payable": false,
      "stateMutability": "pure",
      "type": "function"
    },
    {
      "constant": true,
      "inputs": [
        {
          "internalType": "bytes",
          "name": "input",
          "type": "bytes"
        }
      ],
      "name": "callRipemd160",
      "outputs": [
        {
          "internalType": "bytes20",
          "name": "result",
          "type": "bytes20"
        }
      ],
      "payable": false,
      "stateMutability": "pure",
      "type": "function"
    },
    {
      "constant": true,
      "inputs": [
        {
          "internalType": "bytes",
          "name": "input",
          "type": "bytes"
        }
      ],
      "name": "callSha256",
      "outputs": [
        {
          "internalType": "bytes32",
          "name": "result",
          "type": "bytes32"
        }
      ],
      "payable": false,
      "stateMutability": "pure",
      "type": "function"
    }
  ],
  "bytecode": "0x608060405234801561001057600080fd5b50610449806100206000396000f3fe608060405234801561001057600080fd5b50600436106100415760003560e01c80634f9305c0146100465780638af606d414610115578063dd0678f114610202575b600080fd5b6100ff6004803603602081101561005c57600080fd5b810190808035906020019064010000000081111561007957600080fd5b82018360208201111561008b57600080fd5b803590602001918460018302840111640100000000831117156100ad57600080fd5b91908080601f016020809104026020016040519081016040528093929190818152602001838380828437600081840152601f19601f8201169050808301925050505050505091929192905050506102d1565b6040518082815260200191505060405180910390f35b6101ce6004803603602081101561012b57600080fd5b810190808035906020019064010000000081111561014857600080fd5b82018360208201111561015a57600080fd5b8035906020019184600183028401116401000000008311171561017c57600080fd5b91908080601f016020809104026020016040519081016040528093929190818152602001838380828437600081840152601f19601f8201169050808301925050505050505091929192905050506102e2565b60405180826bffffffffffffffffffffffff19166bffffffffffffffffffffffff1916815260200191505060405180910390f35b6102bb6004803603602081101561021857600080fd5b810190808035906020019064010000000081111561023557600080fd5b82018360208201111561024757600080fd5b8035906020019184600183028401116401000000008311171561026957600080fd5b91908080601f016020809104026020016040519081016040528093929190818152602001838380828437600081840152601f19601f82011690508083019250505050505050919291929050505061036d565b6040518082815260200191505060405180910390f35b600081805190602001209050919050565b60006003826040518082805190602001908083835b6020831061031a57805182526020820191506020810190506020830392506102f7565b6001836020036101000a038019825116818451168082178552505050505050905001915050602060405180830381855afa15801561035c573d6000803e3d6000fd5b5050506040515160601b9050919050565b60006002826040518082805190602001908083835b602083106103a55780518252602082019150602081019050602083039250610382565b6001836020036101000a038019825116818451168082178552505050505050905001915050602060405180830381855afa1580156103e7573d6000803e3d6000fd5b5050506040513d60208110156103fc57600080fd5b8101908080519060200190929190505050905091905056fea265627a7a7231582078a37f5fa57884350fb0783999f7ff40dee9b641774e5420353917817a9ce1ea64736f6c63430005100032",
  "source": "pragma solidity ^0.5.0;\n\ncontract Hashing {\n  function callKeccak256(bytes memory input) public pure returns(bytes32 result) {\n    return keccak256(input);\n  }\n\n  function callRipemd160(bytes memory input) public pure returns(bytes20 result) {\n    return ripemd160(input);\n  }\n\n  function callSha256(bytes memory input) public pure returns(bytes32 result) {\n    return sha256(input);\n  }\n}\n",
  "sourcePath": "/media/ext/cw/frontier-tester/contracts/Hashing.sol",
  "compiler": {
    "name": "solc",
    "version": "0.5.16+commit.9c3226ce.Emscripten.clang"
  },
  "schemaVersion": "3.2.0",
  "updatedAt": "2020-09-24T16:52:02.280Z",
  "devdoc": {
    "methods": {}
  },
  "userdoc": {
    "methods": {}
  }
}