{
  "contractName": "IContractUser",
  "abi": [
    {
      "inputs": [],
      "payable": false,
      "stateMutability": "nonpayable",
      "type": "constructor"
    },
    {
      "constant": false,
      "inputs": [
        {
          "internalType": "address",
          "name": "a",
          "type": "address"
        }
      ],
      "name": "linkContract",
      "outputs": [
        {
          "internalType": "bool",
          "name": "",
          "type": "bool"
        }
      ],
      "payable": false,
      "stateMutability": "nonpayable",
      "type": "function"
    },
    {
      "constant": true,
      "inputs": [],
      "name": "doTheThing",
      "outputs": [
        {
          "internalType": "bool",
          "name": "",
          "type": "bool"
        }
      ],
      "payable": false,
      "stateMutability": "view",
      "type": "function"
    }
  ],
  "bytecode": "0x608060405234801561001057600080fd5b506101de806100206000396000f3fe608060405234801561001057600080fd5b50600436106100365760003560e01c80634550d60b1461003b578063d271900d1461005d575b600080fd5b6100436100b9565b604051808215151515815260200191505060405180910390f35b61009f6004803603602081101561007357600080fd5b81019080803573ffffffffffffffffffffffffffffffffffffffff169060200190929190505050610162565b604051808215151515815260200191505060405180910390f35b60008060009054906101000a900473ffffffffffffffffffffffffffffffffffffffff1673ffffffffffffffffffffffffffffffffffffffff1663826926796040518163ffffffff1660e01b815260040160206040518083038186803b15801561012257600080fd5b505afa158015610136573d6000803e3d6000fd5b505050506040513d602081101561014c57600080fd5b8101908080519060200190929190505050905090565b6000816000806101000a81548173ffffffffffffffffffffffffffffffffffffffff021916908373ffffffffffffffffffffffffffffffffffffffff16021790555091905056fea265627a7a72315820b56c857bc446f054e3e06aef1ff3b77a8bf1d2ec6b7b2a1d1e1f2c292ee953db64736f6c63430005100032",
  "source": "pragma solidity ^0.5.0;\n\nimport './IContract.sol';\n\ncontract IContractUser {\n\tIContract created;\n\n\tconstructor() public { }\n\n\tfunction linkContract(address a) public returns (bool) {\n\t\tcreated = IContract(a);\n\t}\n\n\tfunction doTheThing() public view returns (bool) {\n\t\treturn created.doSomething();\n\t}\n}\n",
  "sourcePath": "/media/ext/cw/frontier-tester/contracts/IContractUser.sol",
  "compiler": {
    "name": "solc",
    "version": "0.5.16+commit.9c3226ce.Emscripten.clang"
  },
  "schemaVersion": "3.2.0",
  "updatedAt": "2020-09-22T13:58:53.724Z",
  "devdoc": {
    "methods": {}
  },
  "userdoc": {
    "methods": {}
  }
}