{
  "contractName": "Lockdrop",
  "abi": [
    {
      "inputs": [
        {
          "internalType": "uint256",
          "name": "startTime",
          "type": "uint256"
        }
      ],
      "payable": false,
      "stateMutability": "nonpayable",
      "type": "constructor"
    },
    {
      "anonymous": false,
      "inputs": [
        {
          "indexed": true,
          "internalType": "address",
          "name": "owner",
          "type": "address"
        },
        {
          "indexed": false,
          "internalType": "uint256",
          "name": "eth",
          "type": "uint256"
        },
        {
          "indexed": false,
          "internalType": "contract Lock",
          "name": "lockAddr",
          "type": "address"
        },
        {
          "indexed": false,
          "internalType": "enum Lockdrop.Term",
          "name": "term",
          "type": "uint8"
        },
        {
          "indexed": false,
          "internalType": "bytes",
          "name": "edgewareAddr",
          "type": "bytes"
        },
        {
          "indexed": false,
          "internalType": "bool",
          "name": "isValidator",
          "type": "bool"
        },
        {
          "indexed": false,
          "internalType": "uint256",
          "name": "time",
          "type": "uint256"
        }
      ],
      "name": "Locked",
      "type": "event"
    },
    {
      "anonymous": false,
      "inputs": [
        {
          "indexed": true,
          "internalType": "address",
          "name": "contractAddr",
          "type": "address"
        },
        {
          "indexed": false,
          "internalType": "bytes",
          "name": "edgewareAddr",
          "type": "bytes"
        },
        {
          "indexed": false,
          "internalType": "uint256",
          "name": "time",
          "type": "uint256"
        }
      ],
      "name": "Signaled",
      "type": "event"
    },
    {
      "constant": true,
      "inputs": [],
      "name": "LOCK_DROP_PERIOD",
      "outputs": [
        {
          "internalType": "uint256",
          "name": "",
          "type": "uint256"
        }
      ],
      "payable": false,
      "stateMutability": "view",
      "type": "function"
    },
    {
      "constant": true,
      "inputs": [],
      "name": "LOCK_END_TIME",
      "outputs": [
        {
          "internalType": "uint256",
          "name": "",
          "type": "uint256"
        }
      ],
      "payable": false,
      "stateMutability": "view",
      "type": "function"
    },
    {
      "constant": true,
      "inputs": [],
      "name": "LOCK_START_TIME",
      "outputs": [
        {
          "internalType": "uint256",
          "name": "",
          "type": "uint256"
        }
      ],
      "payable": false,
      "stateMutability": "view",
      "type": "function"
    },
    {
      "constant": false,
      "inputs": [
        {
          "internalType": "enum Lockdrop.Term",
          "name": "term",
          "type": "uint8"
        },
        {
          "internalType": "bytes",
          "name": "edgewareAddr",
          "type": "bytes"
        },
        {
          "internalType": "bool",
          "name": "isValidator",
          "type": "bool"
        }
      ],
      "name": "lock",
      "outputs": [],
      "payable": true,
      "stateMutability": "payable",
      "type": "function"
    },
    {
      "constant": false,
      "inputs": [
        {
          "internalType": "address",
          "name": "contractAddr",
          "type": "address"
        },
        {
          "internalType": "uint32",
          "name": "nonce",
          "type": "uint32"
        },
        {
          "internalType": "bytes",
          "name": "edgewareAddr",
          "type": "bytes"
        }
      ],
      "name": "signal",
      "outputs": [],
      "payable": false,
      "stateMutability": "nonpayable",
      "type": "function"
    },
    {
      "constant": true,
      "inputs": [
        {
          "internalType": "address",
          "name": "_origin",
          "type": "address"
        },
        {
          "internalType": "uint32",
          "name": "_nonce",
          "type": "uint32"
        }
      ],
      "name": "addressFrom",
      "outputs": [
        {
          "internalType": "address",
          "name": "",
          "type": "address"
        }
      ],
      "payable": false,
      "stateMutability": "pure",
      "type": "function"
    }
  ],
  "bytecode": "0x608060405234801561001057600080fd5b506040516110543803806110548339818101604052602081101561003357600080fd5b81019080805190602001909291905050508060008190555062794a00810160018190555050610fed806100676000396000f3fe6080604052600436106100555760003560e01c806315f2e2f71461005a57806339621466146100855780638cf0cb55146100b05780638f183183146100db578063911fab441461017c578063a40d306014610232575b600080fd5b34801561006657600080fd5b5061006f6102c4565b6040518082815260200191505060405180910390f35b34801561009157600080fd5b5061009a6102ca565b6040518082815260200191505060405180910390f35b3480156100bc57600080fd5b506100c56102d0565b6040518082815260200191505060405180910390f35b3480156100e757600080fd5b5061013a600480360360408110156100fe57600080fd5b81019080803573ffffffffffffffffffffffffffffffffffffffff169060200190929190803563ffffffff1690602001909291905050506102d7565b604051808273ffffffffffffffffffffffffffffffffffffffff1673ffffffffffffffffffffffffffffffffffffffff16815260200191505060405180910390f35b34801561018857600080fd5b506102306004803603606081101561019f57600080fd5b81019080803573ffffffffffffffffffffffffffffffffffffffff169060200190929190803563ffffffff169060200190929190803590602001906401000000008111156101ec57600080fd5b8201836020820111156101fe57600080fd5b8035906020019184600183028401116401000000008311171561022057600080fd5b9091929391929390505050610b15565b005b6102c26004803603606081101561024857600080fd5b81019080803560ff1690602001909291908035906020019064010000000081111561027257600080fd5b82018360208201111561028457600080fd5b803590602001918460018302840111640100000000831117156102a657600080fd5b9091929391929390803515159060200190929190505050610cbe565b005b60005481565b60015481565b62794a0081565b6000808263ffffffff1614156104375760d660f81b609460f81b84608060f81b60405160200180857effffffffffffffffffffffffffffffffffffffffffffffffffffffffffffff19167effffffffffffffffffffffffffffffffffffffffffffffffffffffffffffff19168152600101847effffffffffffffffffffffffffffffffffffffffffffffffffffffffffffff19167effffffffffffffffffffffffffffffffffffffffffffffffffffffffffffff191681526001018373ffffffffffffffffffffffffffffffffffffffff1673ffffffffffffffffffffffffffffffffffffffff1660601b8152601401827effffffffffffffffffffffffffffffffffffffffffffffffffffffffffffff19167effffffffffffffffffffffffffffffffffffffffffffffffffffffffffffff191681526001019450505050506040516020818303038152906040528051906020012060001c9050610b0f565b607f8263ffffffff16116105565760d660f81b609460f81b848460405160200180857effffffffffffffffffffffffffffffffffffffffffffffffffffffffffffff19167effffffffffffffffffffffffffffffffffffffffffffffffffffffffffffff19168152600101847effffffffffffffffffffffffffffffffffffffffffffffffffffffffffffff19167effffffffffffffffffffffffffffffffffffffffffffffffffffffffffffff191681526001018373ffffffffffffffffffffffffffffffffffffffff1673ffffffffffffffffffffffffffffffffffffffff1660601b81526014018260ff1660ff1660f81b81526001019450505050506040516020818303038152906040528051906020012060001c9050610b0f565b60ff8263ffffffff16116106c55760d760f81b609460f81b84608160f81b8560405160200180867effffffffffffffffffffffffffffffffffffffffffffffffffffffffffffff19167effffffffffffffffffffffffffffffffffffffffffffffffffffffffffffff19168152600101857effffffffffffffffffffffffffffffffffffffffffffffffffffffffffffff19167effffffffffffffffffffffffffffffffffffffffffffffffffffffffffffff191681526001018473ffffffffffffffffffffffffffffffffffffffff1673ffffffffffffffffffffffffffffffffffffffff1660601b8152601401837effffffffffffffffffffffffffffffffffffffffffffffffffffffffffffff19167effffffffffffffffffffffffffffffffffffffffffffffffffffffffffffff191681526001018260ff1660ff1660f81b8152600101955050505050506040516020818303038152906040528051906020012060001c9050610b0f565b61ffff8263ffffffff16116108375760d860f81b609460f81b84608260f81b8560405160200180867effffffffffffffffffffffffffffffffffffffffffffffffffffffffffffff19167effffffffffffffffffffffffffffffffffffffffffffffffffffffffffffff19168152600101857effffffffffffffffffffffffffffffffffffffffffffffffffffffffffffff19167effffffffffffffffffffffffffffffffffffffffffffffffffffffffffffff191681526001018473ffffffffffffffffffffffffffffffffffffffff1673ffffffffffffffffffffffffffffffffffffffff1660601b8152601401837effffffffffffffffffffffffffffffffffffffffffffffffffffffffffffff19167effffffffffffffffffffffffffffffffffffffffffffffffffffffffffffff191681526001018261ffff1661ffff1660f01b8152600201955050505050506040516020818303038152906040528051906020012060001c9050610b0f565b62ffffff8263ffffffff16116109ac5760d960f81b609460f81b84608360f81b8560405160200180867effffffffffffffffffffffffffffffffffffffffffffffffffffffffffffff19167effffffffffffffffffffffffffffffffffffffffffffffffffffffffffffff19168152600101857effffffffffffffffffffffffffffffffffffffffffffffffffffffffffffff19167effffffffffffffffffffffffffffffffffffffffffffffffffffffffffffff191681526001018473ffffffffffffffffffffffffffffffffffffffff1673ffffffffffffffffffffffffffffffffffffffff1660601b8152601401837effffffffffffffffffffffffffffffffffffffffffffffffffffffffffffff19167effffffffffffffffffffffffffffffffffffffffffffffffffffffffffffff191681526001018262ffffff1662ffffff1660e81b8152600301955050505050506040516020818303038152906040528051906020012060001c9050610b0f565b60da60f81b609460f81b84608460f81b8560405160200180867effffffffffffffffffffffffffffffffffffffffffffffffffffffffffffff19167effffffffffffffffffffffffffffffffffffffffffffffffffffffffffffff19168152600101857effffffffffffffffffffffffffffffffffffffffffffffffffffffffffffff19167effffffffffffffffffffffffffffffffffffffffffffffffffffffffffffff191681526001018473ffffffffffffffffffffffffffffffffffffffff1673ffffffffffffffffffffffffffffffffffffffff1660601b8152601401837effffffffffffffffffffffffffffffffffffffffffffffffffffffffffffff19167effffffffffffffffffffffffffffffffffffffffffffffffffffffffffffff191681526001018263ffffffff1663ffffffff1660e01b8152600401955050505050506040516020818303038152906040528051906020012060001c90505b92915050565b600054421015610b2457600080fd5b600154421115610b3357600080fd5b8333848173ffffffffffffffffffffffffffffffffffffffff168373ffffffffffffffffffffffffffffffffffffffff161415610bf1578673ffffffffffffffffffffffffffffffffffffffff167f0211c2ecb6e4a6502e0a459e097b88a8a9e09e651e50930a9a791cc031543b1586864260405180806020018381526020018281038252858582818152602001925080828437600081840152601f19601f82011690508083019250505094505050505060405180910390a2610cb5565b610bfb82826102d7565b73ffffffffffffffffffffffffffffffffffffffff168373ffffffffffffffffffffffffffffffffffffffff1614610c3257600080fd5b8673ffffffffffffffffffffffffffffffffffffffff167f0211c2ecb6e4a6502e0a459e097b88a8a9e09e651e50930a9a791cc031543b1586864260405180806020018381526020018281038252858582818152602001925080828437600081840152601f19601f82011690508083019250505094505050505060405180910390a25b50505050505050565b600034905060003390506000610cd387610e4e565b90506000838383604051610ce690610edd565b808373ffffffffffffffffffffffffffffffffffffffff1673ffffffffffffffffffffffffffffffffffffffff168152602001828152602001925050506040518091039082f080158015610d3e573d6000803e3d6000fd5b5090509050348173ffffffffffffffffffffffffffffffffffffffff16311015610d6457fe5b8273ffffffffffffffffffffffffffffffffffffffff167f8f81b4492eef21096ee0e1bc48a7200f9db32806ea6730354516e05e9856139985838b8b8b8b42604051808881526020018773ffffffffffffffffffffffffffffffffffffffff1673ffffffffffffffffffffffffffffffffffffffff168152602001866002811115610deb57fe5b60ff16815260200180602001841515151581526020018381526020018281038252868682818152602001925080828437600081840152601f19601f8201169050808301925050509850505050505050505060405180910390a25050505050505050565b6000806002811115610e5c57fe5b826002811115610e6857fe5b1415610e7b5762794a0042019050610ed8565b60016002811115610e8857fe5b826002811115610e9457fe5b1415610ea75762f1428042019050610ed8565b600280811115610eb357fe5b826002811115610ebf57fe5b1415610ed3576301e1338042019050610ed8565b600080fd5b919050565b60cf80610eea8339019056fe60806040526040516100cf3803806100cf83398181016040526040811015602557600080fd5b810190808051906020019092919080519060200190929190505050816000558060015550506077806100586000396000f3fe6080604052600154421160008114601b5760018114602057603f565b600080fd5b60008060008030316000545af160008114603857603d565b600080fd5b505b5000fea265627a7a7231582095216021ea5f878a1fba720b0722e07e07a1f64ef151adc8b7888dfda9190d8f64736f6c63430005100032a265627a7a72315820b71dce09c3bd00ed4bacb66ee012122dc0048220e95618fbe45e15159a40a4c464736f6c63430005100032",
  "source": "pragma solidity ^0.5.0;\n\ncontract Lock {\n    // address owner; slot #0\n    // address unlockTime; slot #1\n    constructor (address owner, uint256 unlockTime) public payable {\n        assembly {\n            sstore(0x00, owner)\n            sstore(0x01, unlockTime)\n        }\n    }\n    \n    /**\n     * @dev        Withdraw function once timestamp has passed unlock time\n     */\n    function () external payable { // payable so solidity doesn't add unnecessary logic\n        assembly {\n            switch gt(timestamp, sload(0x01))\n            case 0 { revert(0, 0) }\n            case 1 {\n                switch call(gas, sload(0x00), balance(address), 0, 0, 0, 0)\n                case 0 { revert(0, 0) }\n            }\n        }\n    }\n}\n\ncontract Lockdrop {\n    enum Term {\n        ThreeMo,\n        SixMo,\n        TwelveMo\n    }\n    // Time constants\n    uint256 constant public LOCK_DROP_PERIOD = 1 days * 92; // 3 months\n    uint256 public LOCK_START_TIME;\n    uint256 public LOCK_END_TIME;\n    // ETH locking events\n    event Locked(address indexed owner, uint256 eth, Lock lockAddr, Term term, bytes edgewareAddr, bool isValidator, uint time);\n    event Signaled(address indexed contractAddr, bytes edgewareAddr, uint time);\n    \n    constructor(uint startTime) public {\n        LOCK_START_TIME = startTime;\n        LOCK_END_TIME = startTime + LOCK_DROP_PERIOD;\n    }\n\n    /**\n     * @dev        Locks up the value sent to contract in a new Lock\n     * @param      term         The length of the lock up\n     * @param      edgewareAddr The bytes representation of the target edgeware key\n     * @param      isValidator  Indicates if sender wishes to be a validator\n     */\n    function lock(Term term, bytes calldata edgewareAddr, bool isValidator)\n        external\n        payable\n        // didStart\n        // didNotEnd\n    {\n        uint256 eth = msg.value;\n        address owner = msg.sender;\n        uint256 unlockTime = unlockTimeForTerm(term);\n        // Create ETH lock contract\n        Lock lockAddr = (new Lock).value(eth)(owner, unlockTime);\n        // ensure lock contract has at least all the ETH, or fail\n        assert(address(lockAddr).balance >= msg.value);\n        emit Locked(owner, eth, lockAddr, term, edgewareAddr, isValidator, now);\n    }\n\n    /**\n     * @dev        Signals a contract's (or address's) balance decided after lock period\n     * @param      contractAddr  The contract address from which to signal the balance of\n     * @param      nonce         The transaction nonce of the creator of the contract\n     * @param      edgewareAddr   The bytes representation of the target edgeware key\n     */\n    function signal(address contractAddr, uint32 nonce, bytes calldata edgewareAddr)\n        external\n        didStart\n        didNotEnd\n        didCreate(contractAddr, msg.sender, nonce)\n    {\n        emit Signaled(contractAddr, edgewareAddr, now);\n    }\n\n    function unlockTimeForTerm(Term term) internal view returns (uint256) {\n        if (term == Term.ThreeMo) return now + 92 days;\n        if (term == Term.SixMo) return now + 183 days;\n        if (term == Term.TwelveMo) return now + 365 days;\n        \n        revert();\n    }\n\n    /**\n     * @dev        Ensures the lockdrop has started\n     */\n    modifier didStart() {\n        require(now >= LOCK_START_TIME);\n        _;\n    }\n\n    /**\n     * @dev        Ensures the lockdrop has not ended\n     */\n    modifier didNotEnd() {\n        require(now <= LOCK_END_TIME);\n        _;\n    }\n\n    /**\n     * @dev        Rebuilds the contract address from a normal address and transaction nonce\n     * @param      _origin  The non-contract address derived from a user's public key\n     * @param      _nonce   The transaction nonce from which to generate a contract address\n     */\n    function addressFrom(address _origin, uint32 _nonce) public pure returns (address) {\n        if(_nonce == 0x00)     return address(uint160(uint256(keccak256(abi.encodePacked(byte(0xd6), byte(0x94), _origin, byte(0x80))))));\n        if(_nonce <= 0x7f)     return address(uint160(uint256(keccak256(abi.encodePacked(byte(0xd6), byte(0x94), _origin, uint8(_nonce))))));\n        if(_nonce <= 0xff)     return address(uint160(uint256(keccak256(abi.encodePacked(byte(0xd7), byte(0x94), _origin, byte(0x81), uint8(_nonce))))));\n        if(_nonce <= 0xffff)   return address(uint160(uint256(keccak256(abi.encodePacked(byte(0xd8), byte(0x94), _origin, byte(0x82), uint16(_nonce))))));\n        if(_nonce <= 0xffffff) return address(uint160(uint256(keccak256(abi.encodePacked(byte(0xd9), byte(0x94), _origin, byte(0x83), uint24(_nonce))))));\n        return address(uint160(uint256(keccak256(abi.encodePacked(byte(0xda), byte(0x94), _origin, byte(0x84), uint32(_nonce)))))); // more than 2^32 nonces not realistic\n    }\n\n    /**\n     * @dev        Ensures the target address was created by a parent at some nonce\n     * @param      target  The target contract address (or trivially the parent)\n     * @param      parent  The creator of the alleged contract address\n     * @param      nonce   The creator's tx nonce at the time of the contract creation\n     */\n    modifier didCreate(address target, address parent, uint32 nonce) {\n        // Trivially let senders \"create\" themselves\n        if (target == parent) {\n            _;\n        } else {\n            require(target == addressFrom(parent, nonce));\n            _;\n        }\n    }\n}",
  "sourcePath": "/media/ext/cw/frontier-tester/contracts/Lockdrop.sol",
  "compiler": {
    "name": "solc",
    "version": "0.5.16+commit.9c3226ce.Emscripten.clang"
  },
  "schemaVersion": "3.2.0",
  "updatedAt": "2020-09-16T14:33:25.029Z",
  "networkType": "ethereum",
  "devdoc": {
    "methods": {
      "addressFrom(address,uint32)": {
        "details": "Rebuilds the contract address from a normal address and transaction nonce",
        "params": {
          "_nonce": "The transaction nonce from which to generate a contract address",
          "_origin": "The non-contract address derived from a user's public key"
        }
      },
      "lock(uint8,bytes,bool)": {
        "details": "Locks up the value sent to contract in a new Lock",
        "params": {
          "edgewareAddr": "The bytes representation of the target edgeware key",
          "isValidator": "Indicates if sender wishes to be a validator",
          "term": "The length of the lock up"
        }
      },
      "signal(address,uint32,bytes)": {
        "details": "Signals a contract's (or address's) balance decided after lock period",
        "params": {
          "contractAddr": "The contract address from which to signal the balance of",
          "edgewareAddr": "The bytes representation of the target edgeware key",
          "nonce": "The transaction nonce of the creator of the contract"
        }
      }
    }
  },
  "userdoc": {
    "methods": {}
  }
}