{
  "contractName": "OwnerContract",
  "abi": [
    {
      "inputs": [],
      "payable": false,
      "stateMutability": "nonpayable",
      "type": "constructor"
    },
    {
      "constant": true,
      "inputs": [],
      "name": "makeCall",
      "outputs": [
        {
          "internalType": "bool",
          "name": "",
          "type": "bool"
        }
      ],
      "payable": false,
      "stateMutability": "view",
      "type": "function"
    }
  ],
  "bytecode": "0x608060405234801561001057600080fd5b50336000806101000a81548173ffffffffffffffffffffffffffffffffffffffff021916908373ffffffffffffffffffffffffffffffffffffffff160217905550610152806100606000396000f3fe608060405234801561001057600080fd5b506004361061002b5760003560e01c8063947719e814610030575b600080fd5b610038610052565b604051808215151515815260200191505060405180910390f35b60008060009054906101000a900473ffffffffffffffffffffffffffffffffffffffff1673ffffffffffffffffffffffffffffffffffffffff163373ffffffffffffffffffffffffffffffffffffffff1614610116576040517f08c379a000000000000000000000000000000000000000000000000000000000815260040180806020018281038252600a8152602001807f6f6e6c79206f776e65720000000000000000000000000000000000000000000081525060200191505060405180910390fd5b600190509056fea265627a7a72315820f44e3b89ba0b26e350e5b53688fe3e4218477f50c4aaf264960707502a50358a64736f6c63430005100032",
  "source": "pragma solidity ^0.5.0;\n\ncontract OwnerContract {\n  address owner;\n  constructor() public {\n    owner = msg.sender;\n  }\n\n  function makeCall() public view isOwner returns(bool) {\n    return true;\n  }\n\n  modifier isOwner() {\n    require(msg.sender == owner, \"only owner\");\n    _;\n  }\n}\n",
  "sourcePath": "/media/ext/cw/edgeware-node-develop/ts-tests/frontier-tester/contracts/OwnerContract.sol",
  "compiler": {
    "name": "solc",
    "version": "0.5.16+commit.9c3226ce.Emscripten.clang"
  },
  "schemaVersion": "3.2.3",
  "updatedAt": "2021-01-21T20:27:19.370Z",
  "devdoc": {
    "methods": {}
  },
  "userdoc": {
    "methods": {}
  }
}