{
  "contractName": "StoreNum",
  "abi": [
    {
      "constant": false,
      "inputs": [
        {
          "internalType": "uint8",
          "name": "number",
          "type": "uint8"
        }
      ],
      "name": "addToStore",
      "outputs": [],
      "payable": false,
      "stateMutability": "nonpayable",
      "type": "function"
    },
    {
      "constant": true,
      "inputs": [],
      "name": "getStore",
      "outputs": [
        {
          "internalType": "uint8[]",
          "name": "",
          "type": "uint8[]"
        }
      ],
      "payable": false,
      "stateMutability": "view",
      "type": "function"
    }
  ],
  "bytecode": "0x608060405234801561001057600080fd5b506101c9806100206000396000f3fe608060405234801561001057600080fd5b50600436106100365760003560e01c80637a24b4541461003b578063c2722ecc1461006c575b600080fd5b61006a6004803603602081101561005157600080fd5b81019080803560ff1690602001909291905050506100cb565b005b610074610116565b6040518080602001828103825283818151815260200191508051906020019060200280838360005b838110156100b757808201518184015260208101905061009c565b505050509050019250505060405180910390f35b600081908060018154018082558091505090600182039060005260206000209060209182820401919006909192909190916101000a81548160ff021916908360ff1602179055505050565b6060600080548060200260200160405190810160405280929190818152602001828054801561018a57602002820191906000526020600020906000905b82829054906101000a900460ff1660ff16815260200190600101906020826000010492830192600103820291508084116101535790505b505050505090509056fea265627a7a72315820adad602b027bd63c04dbbe3363f171189144b33d373456c673ebb010a0c76f8864736f6c63430005100032",
  "source": "pragma solidity ^0.5.0;\n\ncontract StoreNum {\n  uint8[] store;\n\n  function addToStore(uint8 number) public {\n    store.push(number);\n  }\n\n  function getStore() public view returns(uint8[] memory) {\n    return store;\n  }\n}\n",
  "sourcePath": "/media/ext/cw/edgeware-node-develop/ts-tests/frontier-tester/contracts/StoreNum.sol",
  "compiler": {
    "name": "solc",
    "version": "0.5.16+commit.9c3226ce.Emscripten.clang"
  },
  "schemaVersion": "3.2.0",
  "updatedAt": "2021-01-21T20:45:59.867Z",
  "devdoc": {
    "methods": {}
  },
  "userdoc": {
    "methods": {}
  }
}