{
  "contractName": "SubContract",
  "abi": [
    {
      "inputs": [],
      "payable": true,
      "stateMutability": "payable",
      "type": "constructor"
    },
    {
      "constant": true,
      "inputs": [],
      "name": "getAddress",
      "outputs": [
        {
          "internalType": "address",
          "name": "ownAddress",
          "type": "address"
        }
      ],
      "payable": false,
      "stateMutability": "view",
      "type": "function"
    },
    {
      "constant": true,
      "inputs": [],
      "name": "getValue",
      "outputs": [
        {
          "internalType": "uint256",
          "name": "",
          "type": "uint256"
        }
      ],
      "payable": false,
      "stateMutability": "view",
      "type": "function"
    }
  ],
  "bytecode": "0x608060405260e0806100126000396000f3fe6080604052348015600f57600080fd5b506004361060325760003560e01c80632096525514603757806338cc4831146053575b600080fd5b603d609b565b6040518082815260200191505060405180910390f35b605960a3565b604051808273ffffffffffffffffffffffffffffffffffffffff1673ffffffffffffffffffffffffffffffffffffffff16815260200191505060405180910390f35b600047905090565b60003090509056fea265627a7a72315820dbaccb0e4d352e3238e69b22f0e6b26ad17f1f7b130e9c1b55a1efa4b5008fd864736f6c63430005100032",
  "source": "pragma solidity ^0.5.0;\n\ncontract SubContract {\n  constructor() public payable { }\n  function getAddress() external view returns (address ownAddress) {\n    return address(this);\n  }\n\n  function getValue() external view returns (uint) {\n    return address(this).balance;\n  }\n}\n\ncontract CreateContract {\n  address public deployed;\n\n  constructor() public { }\n\n  function spawn() external returns (SubContract subAddress) {\n    SubContract result = new SubContract();\n    deployed = address(result);\n    return result;\n  }\n\n  function spawnWithValue() external payable returns (SubContract subAddress) {\n    SubContract result = (new SubContract).value(msg.value)();\n    deployed = address(result);\n    return result;\n  }\n}\n",
  "sourcePath": "/media/ext/cw/edgeware-node-develop/ts-tests/frontier-tester/contracts/CreateContract.sol",
  "compiler": {
    "name": "solc",
    "version": "0.5.16+commit.9c3226ce.Emscripten.clang"
  },
  "schemaVersion": "3.2.3",
  "updatedAt": "2021-01-21T20:27:19.343Z",
  "devdoc": {
    "methods": {}
  },
  "userdoc": {
    "methods": {}
  }
}