{
  "contractName": "TimeContract",
  "abi": [
    {
      "inputs": [],
      "payable": false,
      "stateMutability": "nonpayable",
      "type": "constructor"
    },
    {
      "constant": false,
      "inputs": [],
      "name": "timeBeforeEnd",
      "outputs": [
        {
          "internalType": "uint256",
          "name": "",
          "type": "uint256"
        }
      ],
      "payable": false,
      "stateMutability": "nonpayable",
      "type": "function"
    },
    {
      "constant": true,
      "inputs": [],
      "name": "viewTimeCreated",
      "outputs": [
        {
          "internalType": "uint256",
          "name": "",
          "type": "uint256"
        }
      ],
      "payable": false,
      "stateMutability": "view",
      "type": "function"
    },
    {
      "constant": true,
      "inputs": [],
      "name": "viewNow",
      "outputs": [
        {
          "internalType": "uint256",
          "name": "",
          "type": "uint256"
        }
      ],
      "payable": false,
      "stateMutability": "view",
      "type": "function"
    },
    {
      "constant": true,
      "inputs": [],
      "name": "viewBlockTimestamp",
      "outputs": [
        {
          "internalType": "uint256",
          "name": "",
          "type": "uint256"
        }
      ],
      "payable": false,
      "stateMutability": "view",
      "type": "function"
    }
  ],
  "bytecode": "0x608060405234801561001057600080fd5b504260008190555061012d806100276000396000f3fe6080604052348015600f57600080fd5b506004361060465760003560e01c806311fa851d14604b578063372791b61460675780635c0d5f9e146083578063a11afa5714609f575b600080fd5b605160bb565b6040518082815260200191505060405180910390f35b606d60c3565b6040518082815260200191505060405180910390f35b608960cb565b6040518082815260200191505060405180910390f35b60a560d4565b6040518082815260200191505060405180910390f35b600042905090565b600042905090565b60008054905090565b6000620151806000540142111560e957600080fd5b4260018190555060015490509056fea265627a7a72315820d1f1e0308f578d7a059614e420a72dc653cb4d7065e89eea4b3fa4a2fccaebb464736f6c63430005100032",
  "source": "pragma solidity ^0.5.0;\n\ncontract TimeContract {\n  uint timeCreated;\n  uint lastChecked;\n\n  constructor() public {\n    timeCreated = now;\n  }\n\n  modifier didNotEnd() {\n    require(now <= (timeCreated + 1 days));\n    _;\n  }\n\n  function timeBeforeEnd() public didNotEnd returns (uint) {\n    lastChecked = now;\n    return lastChecked;\n  }\n\n  function viewTimeCreated() public view returns (uint) {\n    return timeCreated;\n  }\n\n  function viewNow() public view returns (uint) {\n    return now;\n  }\n\n  function viewBlockTimestamp() public view returns (uint) {\n    return block.timestamp;\n  }\n}\n",
  "sourcePath": "/media/ext/cw/edgeware-node-develop/ts-tests/frontier-tester/contracts/TimeContract.sol",
  "compiler": {
    "name": "solc",
    "version": "0.5.16+commit.9c3226ce.Emscripten.clang"
  },
  "schemaVersion": "3.2.3",
  "updatedAt": "2021-01-21T20:27:19.372Z",
  "devdoc": {
    "methods": {}
  },
  "userdoc": {
    "methods": {}
  }
}