{
  "contractName": "ValueContract",
  "abi": [
    {
      "inputs": [],
      "payable": true,
      "stateMutability": "payable",
      "type": "constructor"
    },
    {
      "constant": false,
      "inputs": [],
      "name": "sendValue",
      "outputs": [],
      "payable": true,
      "stateMutability": "payable",
      "type": "function"
    },
    {
      "constant": true,
      "inputs": [],
      "name": "getValue",
      "outputs": [
        {
          "internalType": "uint256",
          "name": "",
          "type": "uint256"
        }
      ],
      "payable": false,
      "stateMutability": "view",
      "type": "function"
    }
  ],
  "bytecode": "0x60806040523460008190555060a6806100196000396000f3fe60806040526004361060265760003560e01c80632096525514602b57806327c845dc146053575b600080fd5b348015603657600080fd5b50603d605b565b6040518082815260200191505060405180910390f35b60596064565b005b60008054905090565b346000540160008190555056fea265627a7a72315820114865ff0b2817bd7ef621fd2e8fff81b4c862f3a2f48240b810d60abc4d797e64736f6c63430005100032",
  "source": "pragma solidity ^0.5.0;\n\ncontract ValueContract {\n  uint valueStored;\n  constructor() public payable {\n    valueStored = msg.value;\n  }\n\n  function sendValue() public payable {\n    valueStored = valueStored + msg.value;\n  }\n\n  function getValue() public view returns (uint) {\n    return valueStored;\n  }\n}\n",
  "sourcePath": "/media/ext/cw/frontier-tester/contracts/ValueContract.sol",
  "compiler": {
    "name": "solc",
    "version": "0.5.16+commit.9c3226ce.Emscripten.clang"
  },
  "schemaVersion": "3.2.0",
  "updatedAt": "2020-09-22T13:58:53.735Z",
  "devdoc": {
    "methods": {}
  },
  "userdoc": {
    "methods": {}
  }
}